:100000000C94340018950000189500001895000015
:10001000189500001895000018950000189500002C
:10002000189500001895000018950000189500001C
:10003000189500001895000018950000189500000C
:100040000C944201189500000C94B500189500001E
:1000500018950000189500001895000018950000EC
:1000600018950000189500008FEF8DBFC0E8E8E9F3
:100070004E2E88E08EBFD8E0F7E05F2EA89584B7BB
:10008000082E882784BF88E1992780936000909389
:100090006000EEEFF7E0A0E0B1E088278D933197A4
:1000A000E9F787E68093C40080E08093C50088E18B
:1000B0008093C1000E9471116624539A3B9A439A1F
:1000C000209A219A229A239A5498559856985C9A85
:1000D0005D9A5E9A85E085BD80E084BD70916E007A
:1000E000716070936E0085E085BD7091C10070688D
:1000F0007093C1002DC02B041E0006013F71E5E87E
:10010000F0E0E30F3327F31F099400C0E6EFF0E0BF
:1001100001C00895059000920001A02D0590009265
:100120000101002D0590009202010590009203014B
:10013000059000920401059000920501BB27102F45
:1001400010952C9121232C932E91202B2C930895E4
:1001500070E07093B9007CE07093B8000E94BE120A
:100160000E94061378940C945B0F0F921F922F92AB
:100170003F924F925F927F92AF92BF920F931F93E5
:100180002F933F934F935F936F937F938F939F939F
:10019000AF93BF93CF93DF93EF93FF938FB78F937B
:1001A000A8EFB5E08091C6008C9384E2482F0091BF
:1001B000F805041711F00C94E80070914C0270617E
:1001C00070934C02AFE2B5E088278C930C94250124
:1001D0000D3011F00C940D01ACE4B2E08C9184FB75
:1001E00016F00C940B0170914C027F7E70934C02C0
:1001F00080E0AFE2B5E00E94CA118D9388278C930E
:10020000EFE2F5E0A9EFB5E00E94F01470914C0226
:10021000786070934C020C9425010F3118F011F0A6
:100220000C9414010C942501ACE4B2E08C9184FB95
:1002300016F00C942501A8EFB5E08C91AFE2B5E083
:100240000E94CA118D9388278C938F918FBFFF9145
:10025000EF91DF91CF91BF91AF919F918F917F915E
:100260006F915F914F913F912F911F910F91BF908F
:10027000AF907F905F904F903F902F901F900F9086
:10028000189508950F921F922F923F924F925F926E
:100290007F92AF92BF920F931F932F933F934F93F1
:1002A0005F936F937F938F939F93AF93BF93CF93FE
:1002B000DF93EF93FF938FB78F9374E676BDAAE534
:1002C000B2E08C918F5F8C93AAE5B2E00C9148E08C
:1002D0000E9432158C9300915A02003011F00C9458
:1002E000AF01ABE5B2E00C9140E20E9432158C9375
:1002F000ECE3F2E1A0E6B2E08C919927ACE5B2E044
:100300000E942B1480915B02ACE5B2E00E94501475
:100310000E9446140C900822689409F4E894ACE416
:10032000B2E08C9185F98C93ACE4B2E08C9185FBC2
:10033000882780F9809580FBACE4B2E08C9185F948
:100340008C93ACE4B2E08C9185FBABE2B0E08C9195
:1003500083F98C93ABE5B2E08C918F5F8C938F9196
:100360008FBFFF91EF91DF91CF91BF91AF919F919F
:100370008F917F916F915F914F913F912F911F913D
:100380000F91BF90AF907F905F904F903F902F90D4
:100390001F900F9018955B98EAE0FBE20E94D9113C
:1003A0000E94E011A0E8B7E0E2E3FBE20E940D1436
:1003B0000E94D1110E94E011A0E8B7E0E6E4FBE260
:1003C0000E940D140E94D1110E94E011A0E8B7E034
:1003D000EEE4FBE20E940D140E94D1110E94E01194
:1003E00081E08093600281E080936002E0E0F0E0D1
:1003F000A9E5B2E00E941C15A9E5B2E08C918F5FDF
:100400008C93A9E5B2E00C9144E10E9432158C93E3
:10041000E0E0F0E0A9E5B2E07BE70E940B15E4E83C
:10042000F2E1A9E5B2E08C919927ADE2B1E00E943A
:100430002314ADE2B1E08D919C91A7E5B2E08D93DC
:100440009C93EAE5FBE20E94D911E9E5F2E0A0E81D
:10045000B7E00E9479140E94D1110E94E011E4E6F5
:10046000FBE20E94D911E7E5F2E0A0E8B7E00E94C4
:1004700069140E94D1110E94E01188EE93E08A93E2
:100480009A930E947811A3E5B2E00D931C93ECE6D9
:10049000FBE20E94D911E3E5F2E0A0E8B7E00E9498
:1004A00069140E94D1110E94E011E3E5F2E0A3E19A
:1004B000B2E00E946914A3E1B2E00E94CA11EAE727
:1004C000FBE20E940D1481E08093280181E080937B
:1004D0002701882780932601A3E1B2E00E94EC1156
:1004E000089580E080932B0100912B01093018F0D2
:1004F00011F00C949C0280E08093480288ECA9E4FF
:10050000B2E08C9380E0AAE4B2E08C93E8E4F2E0FD
:10051000ABE2B1E08C9199270E948E1284E690E0C4
:100520000E9411120E947412ABE2B1E08C918F5FB5
:100530008C9310F40C94740280E080932B01009152
:100540002B01093018F011F00C94C70288EC80934D
:10055000480280E0A9E4B2E08C9380E0AAE4B2E033
:100560008C93E8E4F2E0ABE2B1E08C9199270E9431
:100570008E1284E690E00E9411120E947412ABE287
:10058000B1E08C918F5F8C9310F40C949F0280E00B
:1005900080932B0100912B01093018F011F00C947D
:1005A000F20280E08093480280E0A9E4B2E08C93FC
:1005B00088ECAAE4B2E08C93E8E4F2E0ABE2B1E0CC
:1005C0008C9199270E948E1284E690E00E9411126D
:1005D0000E947412ABE2B1E08C918F5F8C9310F4A7
:1005E0000C94CA0284EF91E00E94111280E0809383
:1005F0002B0100912B01093018F011F00C9421030C
:1006000080E08093480280E0A9E4B2E08C9380E02F
:10061000AAE4B2E08C93E8E4F2E0ABE2B1E08C91C2
:1006200099270E948E1284E690E00E9411120E9487
:100630007412ABE2B1E08C918F5F8C9310F40C9448
:10064000F902089580E080932B0100912B0109307D
:1006500018F011F00C944D0388EC8093480284E666
:10066000A9E4B2E08C9380E0AAE4B2E08C93E8E4E1
:10067000F2E0ABE2B1E08C9199270E948E128EE1FC
:1006800090E00E9411120E947412ABE2B1E08C91D2
:100690008F5F8C9310F40C942503E1E0F0E00E944E
:1006A000F9110E94A5120E947412089589E08093A6
:1006B0002B0140912B0100E0041718F011F00C946D
:1006C000820388EC8093480284E6A9E4B2E08C932C
:1006D00080E0AAE4B2E08C93E8E4F2E0ABE2B1E0BF
:1006E0008C9199270E948E128EE190E00E94111247
:1006F0000E94741280912B01815080932B0110F085
:100700000C945903E1E0F0E00E94F9110E94A51257
:100710000E9474120895E0E8F2E1AEE4B2E08C9138
:100720009927A0E5B2E00E9428140E947404EF9378
:10073000FF93ECE4F0E00E940112FF91EF910E9420
:10074000990400914F02073011F40C94BE038AE023
:1007500090E00E9411120E94B80440914D02009155
:100760004F02041711F00C94BE0370914C02706498
:1007700070934C0280914E0280935202AEE4B2E03C
:100780008C918F5F8C93AEE4B2E00C9144E00E94B8
:1007900032158C93089500914F02033011F00C94A0
:1007A000F70300915202013011F00C94DC0381E058
:1007B000809351020C94F503003011F00C94E50382
:1007C00082E0809351020C94F503033011F00C94F5
:1007D000EE038BE0809351020C94F503023011F08C
:1007E0000C94F5038CE0809351020C947304053053
:1007F00011F00C94210400915202013011F00C947C
:10080000060485E0809351020C941F04003011F01F
:100810000C940F0486E0809351020C941F04033063
:1008200011F00C94180483E0809351020C941F047F
:10083000023011F00C941F0484E0809351020C9458
:100840007304063011F00C944B04009152020130F5
:1008500011F00C94300489E0809351020C94490407
:10086000003011F00C9439048AE0809351020C940A
:100870004904033011F00C94420487E08093510244
:100880000C944904023011F00C94490488E08093E0
:1008900051020C947304053011F00C947304009110
:1008A0005202013011F00C945A0485E080935102F9
:1008B0000C947304003011F00C94630486E0809370
:1008C00051020C947304033011F00C946C0483E017
:1008D000809351020C947304023011F00C94730451
:1008E00084E0809351020895A0E5B2E08C9180FBF2
:1008F000A5E2B0E08C9180F98C93A0E5B2E08C91F8
:1009000081FBA5E2B0E08C9181F98C93A0E5B2E087
:100910008C9182FBA5E2B0E08C9182F98C93A0E5EA
:10092000B2E08C9183FBA5E2B0E08C9183F98C93CB
:10093000089580E080934F02A9E2B0E08C9184FB9F
:10094000AFE4B2E08C9180F98C93A9E2B0E08C9195
:1009500085FBAFE4B2E08C9181F98C93A9E2B0E021
:100960008C9186FBAFE4B2E08C9182F98C93089570
:1009700080E080934D02A9E2B0E08C9184FBADE46D
:10098000B2E08C9180F98C93A9E2B0E08C9185FB68
:10099000ADE4B2E08C9181F98C93A9E2B0E08C9146
:1009A00086FBADE4B2E08C9182F98C9308953B9A7A
:1009B000E8E1F1E088E592E00197439A0E94041291
:1009C00043980E940412482F492BB1F7439A089587
:1009D0003B9AE0E4F1E084EF91E00197439A0E94B2
:1009E000041243980E940412482F492BB1F7439AEE
:1009F00088EC90E00E9411123B9AE0E4F1E084EF71
:100A000091E00197439A0E94041243980E940412B5
:100A1000482F492BB1F7439A08953B9AE2E5F3E05A
:100A200088EE93E00197439A0E94041243980E9433
:100A30000412482F492BB1F7439A0895EEE7FBE2E1
:100A40000E94D911A9EFB5E00E94D3110E94E011D4
:100A500081E0E9EFF5E006E00A93A3E1B2E00E944D
:100A6000F514E9EFF5E09CE204E132E2A5E6B2E03C
:100A70000E945E15A4E6B2E02C930091640200305F
:100A800018F011F00C9446050C94760581E08093E3
:100A900029014091640200912901041718F011F016
:100AA0000C947605E9E2F1E0A0E8B7E00E94791441
:100AB0000E94D111E0E8FBE20E94D911A9E2B1E065
:100AC0000D91112745E150E00E940314A0E5B2E02A
:100AD000A00FB11F0E94D3110E94E011A9E2B1E062
:100AE0008C918F5F8C9310F40C944905A5E6B2E0CD
:100AF0000E944215082F063011F00C949208E5E68A
:100B0000F2E0A1E3B1E00E94F014E1E3F1E0A1E33F
:100B1000B1E00E943A148FEF80930102A1E3B1E0AB
:100B2000E2E8FBE20E94481511F00C94CE0580E04B
:100B300080930102A8E3B1E0EAE8FBE20E940D1411
:100B4000A3E1B2E0E2E3FBE20E940D14E3E1F2E094
:100B5000A8E3B1E00E94CA110E94F014A8E3B1E03A
:100B60000E94CA11EEE9FBE20E940D14A3E1B2E07B
:100B7000EEE4FBE20E940D14E3E1F2E0A8E3B1E051
:100B80000E94CA110E94F014A8E3B1E00E94CA11A9
:100B9000ECEAFBE20E940D140C949008EEEAFBE2F2
:100BA0000E94481511F00C9409060091640202306D
:100BB00011F00C940406AAE7B2E00E94BE14A9E268
:100BC000B1E00C9300912901013110F00C94FF0564
:100BD00080E080930102A8E3B1E0E6EBFBE20E9433
:100BE0000D14E9E2F1E0A8E3B1E00E94CA110E940D
:100BF000791480912901809360020C94020685E0AB
:100C0000809301020C94070684E0809301020C9407
:100C10009008EEECFBE20E94481511F00C948E0651
:100C200000916402053011F00C948906AAE7B2E045
:100C30000E94BE14A9E2B1E00C93009129010B308F
:100C400010F00C94840680E08093010280912901C9
:100C500080934B02AFE8B2E00E94BE14A8E4B2E079
:100C60000C93A4EAB2E00E94BE14A9E4B2E00C9393
:100C7000A9EBB2E00E94BE14AAE4B2E00C93A8E390
:100C8000B1E0E6EDFBE20E940D14EBE4F2E0A8E334
:100C9000B1E00E94CA110E947914A8E3B1E00E9459
:100CA000CA11E6EEFBE20E940D14E8E4F2E0A8E3CC
:100CB000B1E00E94CA110E947914A8E3B1E00E9439
:100CC000CA11ECEEFBE20E940D14E9E4F2E0A8E3A5
:100CD000B1E00E94CA110E947914A8E3B1E00E9419
:100CE000CA11E2EFFBE20E940D14EAE4F2E0A8E38D
:100CF000B1E00E94CA110E94791470914C02706890
:100D000070934C020C94870685E0809301020C944A
:100D10008C0684E0809301020C949008E8EFFBE2DB
:100D20000E94481511F00C94EF0600916402023005
:100D300011F00C94EA06AAE7B2E00E94BE14A9E200
:100D4000B1E00C93009129010B3010F00C94E506F2
:100D500080E080930102A8E4B2E0AA93BA93A9E2EA
:100D6000B1E08C9199270E94BA12A8E3B1E0E0E0CB
:100D7000FCE20E940D14E8E4F2E0A8E3B1E00E9476
:100D8000CA110E947914A8E3B1E00E94CA11ECEEE6
:100D9000FBE20E940D14E9E4F2E0A8E3B1E00E9456
:100DA000CA110E947914A8E3B1E00E94CA11E2EFCF
:100DB000FBE20E940D14EAE4F2E0A8E3B1E00E9435
:100DC000CA110E9479140C94E80685E08093010210
:100DD0000C94ED0684E0809301020C949008E4E00A
:100DE000FCE20E94481511F00C94AD0700916402DA
:100DF000063011F00C94A80780E080930102AAE766
:100E0000B2E00E94BE14A9E2B1E00C93AFE8B2E0F8
:100E10000E94BE14AAE2B1E00C93A4EAB2E00E94E0
:100E2000BE14A8E4B2E00C93A9EBB2E00E94BE1499
:100E3000A9E4B2E00C93AEECB2E00E94BE14AAE4C6
:100E4000B2E00C9340912A0100912901041710F09F
:100E50000C9449078091290180932C0140912A012B
:100E600000912C01041718F011F00C944707E8E4E6
:100E7000F2E0ACE2B1E08C9199270E948E12ACE2D4
:100E8000B1E08C918F5F8C9310F40C942E070C942E
:100E9000660780912A0180932C01409129010091DD
:100EA0002C01041718F011F00C946607E8E4F2E046
:100EB000ACE2B1E08C9199270E948E12ACE2B1E0D5
:100EC0008C918F5F8C9310F40C944D070E947412D8
:100ED000A8E3B1E0ECE0FCE20E940D14E9E2F1E0ED
:100EE000A8E3B1E00E94CA110E947914A8E3B1E01E
:100EF0000E94CA11E6EEFBE20E940D14E8E4F2E063
:100F0000A8E3B1E00E94CA110E947914A8E3B1E0FD
:100F10000E94CA11ECEEFBE20E940D14E9E4F2E03B
:100F2000A8E3B1E00E94CA110E947914A8E3B1E0DD
:100F30000E94CA11E2EFFBE20E940D14EAE4F2E023
:100F4000A8E3B1E00E94CA110E9479140C94AB0787
:100F500084E0809301020C949008ECE1FCE20E9492
:100F6000481511F00C940B0800916402043011F044
:100F70000C94060880E080930102AAE7B2E00E9488
:100F8000BE14A8E4B2E00C93AFE8B2E00E94BE1435
:100F9000A9E4B2E00C93A4EAB2E00E94BE14AAE471
:100FA000B2E00C93A8E3B1E0E4E2FCE20E940D148D
:100FB000E8E4F2E0A8E3B1E00E94CA110E947914CB
:100FC000A8E3B1E00E94CA11ECEEFBE20E940D140E
:100FD000E9E4F2E0A8E3B1E00E94CA110E947914AA
:100FE000A8E3B1E00E94CA11E2EFFBE20E940D14F7
:100FF000EAE4F2E0A8E3B1E00E94CA110E94791489
:10100000A8E4B2E00E94AD120C94090884E0809339
:1010100001020C949008E8E3FCE20E94481511F0EC
:101020000C941F0880E080930102A8E3B1E0E0E4A3
:10103000FCE20E940D140E9490120C949008ECE4C3
:10104000FCE20E94481511F00C94350880E0809372
:101050000102A8E3B1E0E4E5FCE20E940D140E9465
:10106000A5120E9474120C949008E2E6FCE20E9421
:10107000481511F00C948D0800916402033011F0B2
:101080000C94880880E080930102AAE7B2E00E94F5
:10109000BE14ADE2B1E00D931C93AFE8B2E00E9444
:1010A000BE14AFE2B1E00D931C93A8E3B1E0EAE611
:1010B000FCE20E940D14EDE2F1E0A8E3B1E00E9431
:1010C000CA110E946914A8E3B1E00E94CA11EAE7BC
:1010D000FCE20E940D14EFE2F1E0A8E3B1E00E940F
:1010E000CA110E9469143B9AAFE2B1E0ED91FC9104
:1010F000ADE2B1E08D919C910197439A0E94041258
:1011000043980E940412482F492BB1F70C948B0886
:1011100084E0809301020C94900881E080930102A6
:101120000C94950882E08093010200910102003046
:1011300018F011F00C949E080C94AA08E2E6F1E174
:10114000A1E0B2E08C9199270E943214A8E3B1E0AB
:101150000E940D14A8E3B1E00E94D3110E94E01197
:1011600008954F4B00436F6D616E646F206E6F206A
:101170007265636F6E6F6369646F004C6F6E676951
:1011800074756420636F6D616E646F206E6F20767E
:10119000616C696461004E756D65726F20646520D5
:1011A0007573756172696F206E6F2076616C69640A
:1011B0006F004E756D65726F20646520706172619D
:1011C0006D6574726F7320696E76616C69646F000F
:1011D0004572726F72206C6F6E67697475642070EF
:1011E0006172616D6574726F2031004572726F7249
:1011F000206C6F6E676974756420706172616D65D3
:1012000074726F203200506172616D6574726F206C
:101210006E6F2076616C69646F004552524F523890
:10122000004552524F522053442E20496E74656E31
:101230007465206465206E7565766F00000000009F
:1012400003000000330000003303000033330000CC
:101250003333030033C00C00FF0FFF0F55555555B6
:1012600033333333777777770C00FCFFCC00FCFF08
:10127000CC0CFCFFCCCCFCFF0C00FCFFF0FFFFFF14
:10128000FEFDFBF7F3021A037D014402EF01EE02BB
:1012900031012001A303FA0285001C016F00A6039F
:1012A000B10348013A031B029802AC007F023601E9
:1012B00051000210200000000000000000000000AB
:1012C000000000000000000000000000000000001E
:1012D0000000000000000000000000007CFFFF7C18
:1012E0000000000000000000000000000033330098
:1012F00000000000000000000000003C3C00003C3A
:101300003C000000000000000000000000000000A1
:1013100000000000000000001090F07E1E90F07EA3
:101320001E100000000000021E1F03021E1F030209
:101330000000000000000000000078FCCCFFFFCCA3
:10134000CC880000000000000000040C0C3F3F0CA3
:101350000F07000000000000001C1C1C80C0E07093
:10136000381C0E0000000000181C0E070301001CB2
:101370001C1C000000000000000000B8FCC6E23E9B
:101380001C0000000000000000001F3F3121371E3C
:101390001C3622000000000000000000273F1F0054
:1013A000000000000000000000000000000000003D
:1013B000000000000000000000F0FCFE070101003A
:1013C000000000000000000000030F1F3820200074
:1013D0000000000000000000000000010107FEFC0A
:1013E000F0000000000000000000002020381F0F67
:1013F000030000000000000000004C5CF0FCFCF06A
:101400005C4C000000000000000006070107070117
:1014100007060000000000000000808080F0F080DF
:10142000808000000000000000000101010F0F019A
:1014300001010000000000000000000000000000AA
:1014400000000000000000000000000000B8F87874
:10145000000000000000000000008080808080808C
:101460008080000000000000000001010101010176
:10147000010100000000000000000000000000006A
:1014800000000000000000000000000000383838B4
:101490000000000000000000000000000080C0E02C
:1014A00070381C0E0600000000181C0E0703010017
:1014B000000000000000000000F8FE060383C36384
:1014C000331EFEF80000000000071F1E33313030CD
:1014D00030181F07000000000000000C0C0EFFFF7A
:1014E00000000000000000000000003030303F3FEE
:1014F0003030300000000000001C1E07030383C3CF
:10150000E3773E1C000000000030383C3E373331AA
:101510003030303000000000000C0E07C3C3C3C3DE
:10152000C3E77E3C00000000000C1C383030303037
:1015300030391F0E0000000000C0E070381C0E079C
:10154000FFFF000000000000000303030303030388
:101550003F3F030300000000003F7F63636363635A
:1015600063E3C38300000000000C1C3830303030CF
:1015700030381F0F000000000000C0F0F8DCCEC7BC
:10158000C3C3C3800000000000070F1F3930303094
:101590003030391F0F00000000030303030303C3AF
:1015A000F33F0F030000000000000000303C0F0379
:1015B000000000000000000000BCFEE7C3C3C3E75A
:1015C000FEBC0000000000000F1F3930303030300A
:1015D000391F0F0000000000003C7EE7C3C3C3C3F7
:1015E000C3E7FEFC00000000000000303030381C73
:1015F0000E07030000000000000000000070707083
:10160000000000000000000000000000001C1C1C86
:10161000000000000000000000000000007070707A
:10162000000000000000000000000000009CFC7CA6
:101630000000000000000000C0E0F0381C0E0703AE
:101640000000000000000000000103070E1C3830FD
:10165000000000000000000000006060606060604A
:101660006060600000000000000006060606060636
:1016700006060600000000000000000003070E1C24
:1016800038F0E0C0000000000000000030381C0E00
:101690000703010000000000001C1E070383C3E3D2
:1016A000773E1C00000000000000000000373700FB
:1016B0000000000000000000F8FE07F3FB1BFBFB2E
:1016C00007FEF800000000000F1F183337363737C9
:1016D0003603010000000000000000E0FC1F1FFCBA
:1016E000E00000000000000000383F070606060684
:1016F000073F38000000000000FFFFC3C3C3C3E77B
:10170000FEBC000000000000003F3F3030303030B1
:10171000391F0F000000000000F0FC0E0703030358
:10172000070E0C000000000000030F1C38303030A2
:10173000381C0C000000000000FFFF030303030738
:101740000EFCF00000000000003F3F303030303829
:101750001C0F0300000000000000FFFFC3C3C3C351
:10176000C3C303030000000000003F3F30303030AF
:10177000303030300000000000FFFFC3C3C3C3C3DC
:10178000C303030000000000003F3F000000000012
:1017900000000000000000000000F0FC0E0703C382
:1017A000C3C3C7C6000000000000030F1C38303060
:1017B00030303F3F0000000000FFFFC0C0C0C0C08D
:1017C000C0FFFF0000000000003F3F0000000000DD
:1017D000003F3F00000000000000000303FFFF0384
:1017E000030000000000000000000030303F3F30E8
:1017F00030000000000000000000000000000000B9
:1018000000FFFF0000000000000E1E3830303030B6
:10181000381F07000000000000FFFFC0E0F0381C88
:101820000E07030000000000003F3F000103070E09
:101830001C3830000000000000FFFF000000000026
:101840000000000000000000003F3F30303030302A
:10185000303030000000000000FFFF1E78E0E0782C
:101860001EFFFF0000000000003F3F0000010100DC
:10187000003F3F000000000000FFFF0E38F0C000F6
:1018800000FFFF0000000000003F3F0000000307D2
:101890001C3F3F000000000000F0FC0E07030307A0
:1018A0000EFCF0000000000000030F1C3830303840
:1018B0001C0F03000000000000FFFF83838383836D
:1018C000C7FE7C0000000000003F3F010101010154
:1018D000010000000000000000F0FC0E07030307F9
:1018E0000EFCF0000000000000030F1C3830363EF4
:1018F0001C3F33000000000000FFFF8383838383CD
:10190000C7FE7C0000000000003F3F010103070FFD
:101910001D38300000000000003C7EE7C3C3C3C395
:10192000C78E0C0000000000000C1C383030303036
:10193000391F0F00000000000000030303FFFF0336
:10194000030300000000000000000000003F3F0013
:10195000000000000000000000FFFF000000000089
:1019600000FFFF000000000000071F38303030305B
:10197000381F07000000000000073FF8C00000C04B
:10198000F83F070000000000000000010F3E3E0F7E
:10199000010000000000000000FFFF000080800048
:1019A00000FFFF0000000000003F3F1C060303068D
:1019B0001C3F3F000000000000030F1C30E0E0303F
:1019C0001C0F03000000000000303C0E0301010367
:1019D0000E3C30000000000000030F3CF0C0C0F0DF
:1019E0003C0F03000000000000000000003F3F002B
:1019F00000000000000000000003030303C3E33302
:101A00001F0F03000000000000303C3E3331303037
:101A10003030300000000000000000FFFF0303032F
:101A200003000000000000000000003F3F303030A5
:101A3000300000000000000E1C3870E0C080000084
:101A40000000000000000000000000000103070E7D
:101A50001C180000000000000003030303FFFF0048
:101A6000000000000000000000303030303F3F0038
:101A7000000000000000006070381C0E070E1C38CB
:101A80007060000000000000000000000000000086
:101A90000000000000000000000000000000000046
:101AA000000000000000000000C0C0C0C0C0C0C0F6
:101AB000C0C0C0C000000000000000003E7E4E001C
:101AC0000000000000000000000000000000000016
:101AD00000000000000000000000406060606060E6
:101AE00060E0C00000000000001C3E33333333339D
:101AF000333F3F000000000000FFFFC060606060F7
:101B0000E0C0800000000000003F3F303030303047
:101B1000381F0F00000000000080C0E060606060BF
:101B200060C0800000000000000F1F3830303030EF
:101B300030180800000000000080C0E0606060E035
:101B4000C0FFFF0000000000000F1F3830303030B1
:101B5000303F3F00000000000080C0E06060606037
:101B600060C0800000000000000F1F3B33333333A0
:101B7000331301000000000000C0C0FCFEC7C3C357
:101B800003000000000000000000003F3F000000D4
:101B900000000000000000000080C0E060606060A5
:101BA00060E0E000000000000003C7CECCCCCCCC4D
:101BB000E67F3F000000000000FFFFC0606060E0C3
:101BC000C080000000000000003F3F000000000057
:101BD0003F3F0000000000000000000060ECEC004F
:101BE000000000000000000000000030303F3F30E7
:101BF000300000000000000000000000000060EC69
:101C0000EC0000000000000000000060E0C0C0FF29
:101C10007F00000000000000000000FFFF0080C007
:101C2000E0600000000000000000003F3F03070FDD
:101C30001C383000000000000000000003FFFF001F
:101C4000000000000000000000000030303F3F3086
:101C5000300000000000000000E0C0E0E0C0C0E094
:101C6000E0C0800000000000003F3F00003F3F0058
:101C7000003F3F00000000000000E0E060606060A6
:101C8000E0C080000000000000003F3F00000000B6
:101C9000003F3F00000000000080C0E06060606026
:101CA000E0C0800000000000000F1F3830303030EE
:101CB000381F0F000000000000E0E060606060601E
:101CC000E0C080000000000000FFFF0C181818188A
:101CD0001C0F0700000000000080C0E06060606032
:101CE00060E0E0000000000000070F1C1818181842
:101CF0000CFFFF00000000000000E0E0C06060603A
:101D000060E0C0000000000000003F3F0000000055
:101D100000000000000000000000C0E060606060A3
:101D20006040000000000000000011333333333303
:101D30003F1E00000000000000006060FEFE6060CA
:101D40006000000000000000000000001F3F303075
:101D5000303000000000000000E0E0000000000063
:101D600000E0E00000000000000F1F38303030308D
:101D7000183F3F00000000000060E080000000000D
:101D800080E0600000000000000001071E38381EDF
:101D9000070100000000000000E0E00000E0E000BB
:101DA00000E0E0000000000000071F381C0F0F1CBF
:101DB000381F070000000000000060E0C0800080C5
:101DC000C0E0600000000000000030381D0F070F69
:101DD0001D3830000000000000000060E0800000BE
:101DE00080E06000000000000000000081E77E1E2F
:101DF000070100000000000000006060606060E01B
:101E0000E060200000000000000030383C36333134
:101E1000303030000000000080C0FC7E0703030368
:101E2000000000000000000000011F3F70606060C3
:101E30000000000000000000000000FFFF000000A4
:101E400000000000000000000000003F3F00000014
:101E50000000000000000000000000030303077EF4
:101E6000FCC0800000000000000000606060703F67
:101E70001F010000000000000010180C040C1810D6
:101E8000180C04000000000000000000000000002A
:101E900000000000000000000080C0603018183012
:101EA00060C0800000000000000707060606060666
:101EB0000607070000003B9AE8E1F1E088E592E0C0
:101EC0000197439A0E94041243980E940412482FDB
:101ED000492BB1F7439A0E943513E2EBF2E1A4E2F9
:101EE000B1E0ED93FC9381E08093280181E0809341
:101EF0002701882780932601E0E8FCE20E94F21186
:101F000030E00E947E000E9471020E94CB01ACE48E
:101F1000B2E08C9183FB16F00C949F0F70914C02F1
:101F2000777F70934C02E8E8FCE20E94D911A9EF98
:101F3000B5E00E94D3110E94E0110E941E05ACE49E
:101F4000B2E08C9187FB16F00C94BD0F70914C029F
:101F50007F7770934C02EEE8FCE20E94D9110E9458
:101F6000E0110E94A512E8E4F2E0ABE4B2E08C914B
:101F700099270E948E120E9474120E948B03ACE477
:101F8000B2E08C9186FB16F00C946F1170914C02AC
:101F90007F7B70934C020E94CB03E6E9FCE20E9437
:101FA000D911E1E5F2E0A0E8B7E00E9479140E94BF
:101FB000D1110E94E0110E94D70482E390E00E94B8
:101FC000111200915102003080E010F009F081E020
:101FD0008F93009151020B3081E008F080E09F91D7
:101FE0008923882311F40C94EB10A3E5B2E00D9142
:101FF0001C91A1E5B2E04D9155270E94B011ADE2D0
:10200000B1E00D931C93ADE2B1E00D911C91003055
:1020100050E0150711F00C947B10E3E5F2E0A0E826
:10202000B7E00E9469140E94D111EAE9FCE20E9423
:10203000D911E1E5F2E0A0E8B7E00E9479140E942E
:10204000D1110E94E011A3E1B2E0E4EAFCE20E94B7
:102050000D14E1E5F2E0A3E1B2E00E94CA110E9492
:102060007914A3E1B2E00E94CA11EAE7FBE20E9400
:102070000D1484E08093280181E080932701882754
:1020800080932601A3E1B2E00E94EC11A3E1B2E04B
:10209000EAEAFCE20E940D1487E08093280181E0C7
:1020A00080932701882780932601A3E1B2E00E9454
:1020B000EC110091510241E0041BABE4B2E00C933F
:1020C0000E94A51280E08093480288ECA9E4B2E067
:1020D0008C9382E3AAE4B2E08C93E8E4F2E0ABE410
:1020E000B2E08C9199270E948E120E9474120E9475
:1020F000E8040C94EB10E3E5F2E0A0E8B7E00E94FE
:1021000069140E94D111E4EBFCE20E94D911E1E5CF
:10211000F2E0A0E8B7E00E9479140E94D1110E9479
:10212000E011A3E1B2E0E4EAFCE20E940D14E1E573
:10213000F2E0A3E1B2E00E94CA110E947914A3E187
:10214000B2E00E94CA11E2ECFCE20E940D1484E0AD
:102150008093280181E080932701882780932601BE
:10216000A3E1B2E00E94EC11A3E1B2E0E4ECFCE2F6
:102170000E940D1487E08093280181E0809327015D
:10218000882780932601A3E1B2E00E94EC11009120
:10219000510241E0041BABE4B2E00C930E94A51293
:1021A00088EC8093480280E0A9E4B2E08C9380E060
:1021B000AAE4B2E08C93E8E4F2E0ABE4B2E08C9104
:1021C00099270E948E120E9474120E940D050E948F
:1021D000A5120E947412009151020B3011F00C9460
:1021E0002011EEECFCE20E94D9110E94E011A5E55D
:1021F000B2E08D919C91A3E5B2E08D939C93E3E5D1
:10220000F2E0A3E1B2E00E946914A3E1B2E00E940F
:10221000CA11EAE7FBE20E940D1481E080932801D5
:1022200081E080932701882780932601A3E1B2E013
:102230000E94EC110E94A5120E9474120E94560383
:10224000009151020C3011F00C946F11E8EDFCE29A
:102250000E94D9110E94E011A3E5B2E08D919C91FA
:10226000A5E5B2E08D939C930E94351388EE93E030
:102270008A939A930E947811A3E5B2E00D931C9380
:10228000E6EEFCE20E94D911E3E5F2E0A0E8B7E057
:102290000E9469140E94D1110E94E011E3E5F2E06E
:1022A000A3E1B2E00E946914A3E1B2E00E94CA1166
:1022B000EAE7FBE20E940D1481E08093280181E0AF
:1022C00080932701882780932601A3E1B2E00E9432
:1022D000EC110E94A5120E9474120E9422030C9419
:1022E000870F15E000E000935702109358020895FD
:1022F00040915702509158020DEF13E40E940314CD
:102300000D53114600935702109358025991499169
:1023100027D0089509D00E94031400FC10D008951E
:1023200003D01ED001F8F9CF0024E89457FF02C073
:1023300009D0689400F80BD010F80124089502D059
:1023400009D00895509540954F5F5F4F0895E894E8
:1023500017FF0895009510950F5F1F4F689408951B
:10236000352F242FE894452B11F468940895512FAC
:10237000402F0027112780E1440F551F001F111F18
:10238000021B130B416018F4020F131F4E7F8A9536
:1023900099F708958F938D918823E9F711978F917D
:1023A0000895A0E8B7E08D91882311F00CD0FBCF01
:1023B00008950E941314802D11F005D0FACF0895CE
:1023C0008DE001D08AE00090C00005FEFCCF809334
:1023D000C6000895A0E8B7E08D91882311F00FD0D2
:1023E000FBCF08950E941314802D11F008D0FACF6E
:1023F000089588EE93E015D03197D9F708950C949D
:1024000046133197F1F70895AE2FBF2F11974A2F3A
:102410004B2BE1F70895689462F80895E89462F808
:102420000895EF93FF93EE27E82BE92B31F0E0EAD4
:10243000FFE03197F1F70197D1F7FF91EF91089500
:10244000E0910401F09105010CD0E80FF91F089507
:10245000A0910401B091050104D0A80FB91F0895FF
:1024600099270C01880F991F800D911D0895FFB6C3
:10247000F894208308E0330FD0F400C000002083DC
:1024800000000000000010830000000000000000B9
:10249000000000000000000000000A95D9F0330F92
:1024A00068F300000000208300000000000010839B
:1024B0000000000000002083000000000000000079
:1024C000000000000000000000000A9519F0330F22
:1024D000A8F2EDCFFFBE0895FF27E0910001209103
:1024E0000101322F30950895F7DFA0910401B091DA
:1024F000050180910201909103011081122B212F7F
:1025000023233D91B4DF20830197D9F708950181FA
:102510000D9300810D9302810D93089599DFF7CFFC
:10252000DBDF0ED01081122B212F232330E09FDF21
:102530000197E9F720830895A0910401B091050166
:1025400080910201909103010895F6DF00270D9319
:102550000197E9F70895E89401C068940D911D91E1
:102560002C91EADF1D930D932D930397D9F70EF469
:10257000BBDF0895B991A99163DFC9CF3C983D981D
:10258000449A459A089568944093BC008F939F9312
:1025900088279927019629F04091BC0047FFFACF80
:1025A000E8949F918F9162F8089544EAECDF40919E
:1025B000B900487F483019F0403109F0689462F85A
:1025C000089544E94093BC004091BC0044FDFCCF19
:1025D00008951093BB0044E8D6DF8F939F9388271C
:1025E0009927019671F04091B900487F483FC9F39F
:1025F000E894483139F0483229F0403419F0403538
:1026000009F068949F918F9162F808950E94D51205
:10261000E8E2F6E25AE10E941314102D0E94E9123A
:102620005A95C9F70C94E11278AED580003FD300DB
:10263000408D142000A1C8DA1281FFD9F1D840A43E
:10264000A6AF0E94D51218E70E94E912182F09C000
:1026500018E70E94D5120E94E91210E40E94E912C4
:10266000182F0E94E9120C94E1120E94D51218E76B
:102670000E94E91210E40E94E9121127E0E0F4E060
:102680000E94E9123197E1F70C94E112EF93FF9366
:10269000509128015F9370902701E0912401F091FF
:1026A00025010E941314202D0E941314302D0E9426
:1026B0001314002D0E941314602D8052482F0E9485
:1026C0002615E40FF51FCC241124E22E603059F1B9
:1026D000DD24DA94CD2CFF24032F0E94131421F063
:1026E0000A95E00FF11D03C0F3940A95B1F7FD14AC
:1026F00008F4DF2CEA9479F7E22EFF24032F3197B8
:10270000C895002021F00A95E01BF10903C0F3945D
:102710000A95A9F7FC1408F4CF2CEA9471F7D316A4
:1027200011F4D62ECC2470922701732F7C1940917E
:102730002701509128010E94E313603041F0DD2011
:1027400031F05D2D0E9413145A95E1F77D190E9416
:102750001314802D50912601552309F080950E9475
:102760002813509127015395509327017A9579F7B3
:10277000EC0DF11D603081F050912601762F8827F5
:10278000552309F080950E9428137A95C1F750913E
:102790002701560F509327015091280153955093CC
:1027A00028012A9509F0BFCF5F9150932801FF912E
:1027B000EF9108950AD00E94D51218E70E94E912FD
:1027C00010E40C94E9124A955A954F930E94D51241
:1027D00018E70E94E91210E00E94E91210EB150FB1
:1027E0000E94E9121F911F9312951F7010610E94A1
:1027F000E9121F911F700E94E912E3CE019111911D
:102800002191308108950F92B801469F8001479F22
:10281000100D569F100D0F9008950E9413140D92E5
:102820000020D9F70895C89531960020089591E0C9
:1028300005C092E003C094E001C098E0F4DF0D927F
:102840009A95E1F70895880F991FE80FF91FF1CFC6
:10285000E80FF91FECCF880F991F880F991FE80F19
:10286000F91FE9CF0196019721F00E941314E9F7AF
:10287000FACF0895819104D08D938823D9F70895D4
:10288000813618F08B3708F48F7D089591E0882306
:1028900021F08894991F8A95E9F7892F90950895DA
:1028A000883018F011968850FBCF0895040F151F3B
:1028B000261F371F0895000F111F221F331F089571
:1028C00000951095209530950F5F1F4F2F4F3F4F6C
:1028D0000895019110810FC00E94FE130EC00E9446
:1028E000FE1310C00191108117FF05C03FEF2FEFBD
:1028F00004C0008111272227332737FF03C0E0DF00
:102900008DE28D93CF92DF92EF92AA24BB24CC2448
:10291000DD24EE2440E2EAE0FF2755E093E38081E6
:10292000890F87FD9F7083FD907F891B81935A9546
:10293000A9F7C1DFAA1CBB1CCC1CDD1CEE1C4A95F0
:1029400051F7E894EFE0FF2782910BD0EB30E0F7EE
:102950001EF068948A2D09D04D93EF90DF90CF90B0
:102960000895982F829501D0892F8F70805D26F071
:10297000803309F4089568948D93089500271127F2
:10298000222733271DD08A3328F4803318F005D04E
:1029900015D0F9CF0EF494CF089580538F93402F24
:1029A000512F622F732F87DF86DF80DF84DF8F91C7
:1029B0009927080F191F291F391F08958D91089510
:1029C000E894FCDF8032E9F38B32D9F38930C9F324
:1029D0008D3211F46894F2CF089588278D9308956D
:1029E00081918D938823E1F708950991919199231D
:1029F00059F08A95D9F73197002331F081918D9361
:102A00000A958823C9F70895E8CFF999FECFE1BD6B
:102A1000F2BD3196089591E001C092E07B3751F408
:102A20007FB7F894F2DF8D9180BDFA9AF99A9A9562
:102A3000C9F77FBF7727089591E001C092E0E5DFF5
:102A4000F89A80B58D939A95D1F70895FF935527FD
:102A5000F8E0469508F4500F57954795FA95D1F749
:102A6000FF910895FF93881BF9E0001FFA9511F478
:102A7000FF910895881F841B18F4840F8894F5CF64
:102A80000894F3CF8FEF83959D919923E1F70895F3
:102A9000689401C0E894AF93BF938D9116F0919123
:102AA00003C00E941314902D891718F011F4882385
:102AB000A1F7BF91AF910895689401C0E8942227CF
:102AC000102F231709F4089526F40E941314802D63
:102AD00001C08191803081F0891741F070E08D93C1
:102AE0001A9591F7239571E01D93EACF01D0E8CFB5
:102AF000703011F077270895772331F423958827D4
:102B000013958D931A95E9F708952A2A2A2A2A2AD5
:102B10002A2A2A2A2A2A2044524956455220415517
:102B200044494F202A2A2A2A2A2A2A2A2A2A2A2AB1
:102B3000000031302D30372D323032342032303AEF
:102B400030383A333700302E302E343300004449C9
:102B50005649534F522E424153005074727365656B
:102B6000643D000072534545443D00004E75657656
:102B70006F206EFA6E65726F3E0020200000240008
:102B80003A004C4545564657000056657273696FCA
:102B90006E2046573A204665636861203C003E2C13
:102BA000204172636869766F203C00003E00534507
:102BB000544C45440000536520636F6E6669677529
:102BC0007261207365746C65642061200000534558
:102BD000545049580000536520636F6E6669672042
:102BE000706978200000206120523D002C20473D74
:102BF00000002C20423D00004C4545504958000043
:102C0000523D0000534554524E4700005365206327
:102C10006F6E662052616E676F2000005345544608
:102C2000494C000054697261206C6C656E6164618E
:102C300020636F6E20523D00434C5246494C0000C9
:102C40004170616761206C6564730000434C5243BE
:102C50004F4C0000634C45415220634F4C4F525340
:102C6000000053455442555A000054657374204285
:102C7000757A7A657220443D00002C20503D00009A
:102C8000484F4C4120202000534552313D004E65B5
:102C9000777069780000566B3D002064697620707B
:102CA0006F7220004449562000002020204F4B2006
:102CB00020200000204E4F2064697620706F722023
:102CC00000002000204552524F5220202000416E2B
:102CD000746572696F7200004E7565766F206EFACA
:0A2CE0006E65726F00004E723D0039
:00000001FF
