:100000000C94340018950000189500001895000015
:10001000189500001895000018950000189500002C
:10002000189500001895000018950000189500001C
:10003000189500001895000018950000189500000C
:100040000C942A01189500000C949D00189500004E
:1000500018950000189500001895000018950000EC
:1000600018950000189500008FEF8DBFC8EDE0EAED
:100070004E2E88E08EBFD8E0F8E05F2EA89584B7BA
:10008000082E882784BF88E1992780936000909389
:100090006000EEEFF7E0A0E0B1E088278D933197A4
:1000A000E9F787E68093C40080E08093C50088E18B
:1000B0008093C1006624539A85E085BD80E084BDAD
:1000C00070916E00716070936E0085E085BD7091D7
:1000D000C10070687093C1002DC025041E00060188
:1000E0003F71E7E7F0E0E30F3327F31F099400C007
:1000F000EAEDF0E001C00895059000920001A02D06
:10010000059000920101002D0590009202010590DA
:1001100000920301059000920401059000920501F0
:10012000BB27102F10952C9121232C932E91202B3F
:100130002C93089578940C946E060F921F922F9230
:100140003F924F925F927F92AF92BF920F931F9315
:100150002F933F934F935F936F937F938F939F93CF
:10016000AF93BF93CF93DF93EF93FF938FB78F93AB
:10017000A2EEB5E08091C6008C9384E2482F0091F6
:10018000E205041711F00C94D000709143027062E4
:1001900070934302A9E1B5E088278C930C940D017C
:1001A0000D3011F00C94F500A3E4B2E08C9185FBC6
:1001B00016F00C94F300709143027F7D709343021C
:1001C00080E0A9E1B5E00E94E2068D9388278C9338
:1001D000E9E1F5E0A3EEB5E00E94A20870914302C8
:1001E0007061709343020C940D010F3118F011F0FF
:1001F0000C94FC000C940D01A3E4B2E08C9185FBFF
:1002000016F00C940D01A2EEB5E08C91A9E1B5E0D9
:100210000E94E2068D9388278C938F918FBFFF9168
:10022000EF91DF91CF91BF91AF919F918F917F918E
:100230006F915F914F913F912F911F910F91BF90BF
:10024000AF907F905F904F903F902F901F900F90B6
:10025000189508950F921F922F923F924F925F929E
:100260007F92AF92BF920F931F932F933F934F9321
:100270005F936F937F938F939F93AF93BF93CF932E
:10028000DF93EF93FF938FB78F9374E676BDA4E46B
:10029000B2E08C918F5F8C93A4E4B2E00C9148E0C3
:1002A0000E94B7088C9300914402003011F00C9426
:1002B0009701A5E4B2E00C9140E20E94B7088C934C
:1002C000E8E9FCE0AAE4B2E08C919927A6E4B2E068
:1002D0000E94DD0780914502A6E4B2E00E94020878
:1002E0000E94F8070C900822689409F4E894A3E4AB
:1002F000B2E08C9186F98C93A3E4B2E08C9186FBFA
:10030000882780F9809580FBA3E4B2E08C9186F980
:100310008C93A3E4B2E08C9186FBABE2B0E08C91CD
:1003200083F98C93A5E4B2E08C918F5F8C93ABE45E
:10033000B2E08C918F5F8C93ABE4B2E00C9144E619
:100340000E94B7088C9300914B02003011F00C947E
:10035000AE0170914C02716070934C028F918FBF0F
:10036000FF91EF91DF91CF91BF91AF919F918F91CD
:100370007F916F915F914F913F912F911F910F91BD
:10038000BF90AF907F905F904F903F902F901F90C5
:100390000F9018955B98E4E1F2E10E94F1060E944B
:1003A000F806A8E8B8E0ECE3F2E10E94C7070E9473
:1003B000E9060E94F806A8E8B8E0E0E5F2E10E944C
:1003C000C7070E94E9060E94F806A8E8B8E0E8E539
:1003D000F2E10E94C7070E94E9060E94F80681E048
:1003E00080934A02089580E08093260100912601BF
:1003F000093018F011F00C941E0280E080933F0247
:1004000088ECA0E4B2E08C9380E0A1E4B2E08C93AD
:10041000EFE3F2E0A6E2B1E08C9199270E94880711
:1004200084E690E00E940B070E946E07A6E2B1E00E
:100430008C918F5F8C9310F40C94F60180E0809384
:10044000260100912601093018F011F00C944902A0
:1004500088EC80933F0280E0A0E4B2E08C9380E0DF
:10046000A1E4B2E08C93EFE3F2E0A6E2B1E08C917C
:1004700099270E94880784E690E00E940B070E945B
:100480006E07A6E2B1E08C918F5F8C9310F40C9410
:10049000210280E08093260100912601093018F0A6
:1004A00011F00C94740280E080933F0280E0A0E49D
:1004B000B2E08C9388ECA1E4B2E08C93EFE3F2E03D
:1004C000A6E2B1E08C9199270E94880784E690E02B
:1004D0000E940B070E946E07A6E2B1E08C918F5F2D
:1004E0008C9310F40C944C0284EF91E00E940B0763
:1004F00080E08093260100912601093018F011F068
:100500000C94A30280E080933F0280E0A0E4B2E07C
:100510008C9380E0A1E4B2E08C93EFE3F2E0A6E2FA
:10052000B1E08C9199270E94880784E690E00E94B0
:100530000B070E946E07A6E2B1E08C918F5F8C934F
:1005400010F40C947B020895E4E6F2E10E94F106B7
:10055000A3EEB5E00E94EB060E94F80681E0E3EE10
:10056000F5E006E00A93AAE0B2E00E94A708E3EEF5
:10057000F5E09CE204E132E2AFE4B2E00E94E3087D
:10058000AEE4B2E02C9300914E02003018F011F06E
:100590000C94CC020C94FC0281E0809324014091E5
:1005A0004E0200912401041718F011F00C94FC0283
:1005B000E4E2F1E0A8E8B8E00E942B080E94E90616
:1005C000E6E6F2E10E94F106A4E2B1E00D91112706
:1005D00045E150E00E94BD07AAE3B2E0A00FB11FC1
:1005E0000E94EB060E94F806A4E2B1E08C918F5FB6
:1005F0008C9310F40C94CF02AFE4B2E00E94C708D1
:10060000082F063011F00C94C005EFE4F2E0A8E2E8
:10061000B1E00E94A208E8E2F1E0A8E2B1E00E94A5
:10062000EC078FEF8093F801A8E2B1E0E8E6F2E191
:100630000E94CD0811F00C94540380E08093F801DF
:10064000AFE2B1E0E0E7F2E10E94C707AAE0B2E062
:10065000ECE3F2E10E94C707EAE0F2E0AFE2B1E0CA
:100660000E94E2060E94A208AFE2B1E00E94E20608
:10067000E4E8F2E10E94C707AAE0B2E0E8E5F2E1AF
:100680000E94C707EAE0F2E0AFE2B1E00E94E206B2
:100690000E94A208AFE2B1E00E94E206E2E9F2E1C4
:1006A0000E94C7070C94BE05E4E9F2E10E94CD0860
:1006B00011F00C948F0300914E02023011F00C9453
:1006C0008A03A4E6B2E00E947008A4E2B1E00C93B1
:1006D00000912401013110F00C94850380E0809397
:1006E000F801AFE2B1E0ECE9F2E10E94C707E4E211
:1006F000F1E0AFE2B1E00E94E2060E942B08809197
:10070000240180934A020C94880385E08093F801C9
:100710000C948D0384E08093F8010C94BE05E4EB07
:10072000F2E10E94CD0811F00C94140400914E02E5
:10073000053011F00C940F04A4E6B2E00E9470089A
:10074000A4E2B1E00C93009124010B3010F00C9462
:100750000A0480E08093F801809124018093420292
:10076000A9E7B2E00E947008AFE3B2E00C93AEE8F4
:10077000B2E00E947008A0E4B2E00C93A3EAB2E0F9
:100780000E947008A1E4B2E00C93AFE2B1E0ECEBA0
:10079000F2E10E94C707E2E4F2E0AFE2B1E00E94BA
:1007A000E2060E942B08AFE2B1E00E94E206ECEC08
:1007B000F2E10E94C707EFE3F2E0AFE2B1E00E948E
:1007C000E2060E942B08AFE2B1E00E94E206E2EDF1
:1007D000F2E10E94C707E0E4F2E0AFE2B1E00E947C
:1007E000E2060E942B08AFE2B1E00E94E206E8EDCB
:1007F000F2E10E94C707E1E4F2E0AFE2B1E00E945B
:10080000E2060E942B0870914302706870934302C5
:100810000C940D0485E08093F8010C94120484E09C
:100820008093F8010C94BE05EEEDF2E10E94CD0834
:1008300011F00C94750400914E02023011F00C94EA
:100840007004A4E6B2E00E947008A4E2B1E00C9348
:10085000009124010B3010F00C946B0480E0809325
:10086000F801AFE3B2E0AA93BA93A4E2B1E08C91AD
:1008700099270E94B407AFE2B1E0E6EEF2E10E94F0
:10088000C707EFE3F2E0AFE2B1E00E94E2060E94A8
:100890002B08AFE2B1E00E94E206E2EDF2E10E9435
:1008A000C707E0E4F2E0AFE2B1E00E94E2060E9496
:1008B0002B08AFE2B1E00E94E206E8EDF2E10E940F
:1008C000C707E1E4F2E0AFE2B1E00E94E2060E9475
:1008D0002B080C946E0485E08093F8010C9473044B
:1008E00084E08093F8010C94BE05EAEEF2E10E94E8
:1008F000CD0811F00C94330500914E02063011F032
:100900000C942E0580E08093F801A4E6B2E00E94EA
:100910007008A4E2B1E00C93A9E7B2E00E9470086D
:10092000A5E2B1E00C93AEE8B2E00E947008AFE33C
:10093000B2E00C93A3EAB2E00E947008A0E4B2E037
:100940000C93A8EBB2E00E947008A1E4B2E00C9313
:100950004091250100912401041710F00C94CF045C
:100960008091240180932701409125010091270166
:10097000041718F011F00C94CD04EFE3F2E0A7E2B5
:10098000B1E08C9199270E948807A7E2B1E08C9191
:100990008F5F8C9310F40C94B4040C94EC0480914D
:1009A000250180932701409124010091270104171C
:1009B00018F011F00C94EC04EFE3F2E0A7E2B1E0E0
:1009C0008C9199270E948807A7E2B1E08C918F5FF4
:1009D0008C9310F40C94D3040E946E07AFE2B1E044
:1009E000E2EFF2E10E94C707E4E2F1E0AFE2B1E03A
:1009F0000E94E2060E942B08AFE2B1E00E94E206EC
:100A0000ECECF2E10E94C707EFE3F2E0AFE2B1E005
:100A10000E94E2060E942B08AFE2B1E00E94E206CB
:100A2000E2EDF2E10E94C707E0E4F2E0AFE2B1E0FC
:100A30000E94E2060E942B08AFE2B1E00E94E206AB
:100A4000E8EDF2E10E94C707E1E4F2E0AFE2B1E0D5
:100A50000E94E2060E942B080C94310584E08093EA
:100A6000F8010C94BE05E2E0F3E10E94CD0811F01C
:100A70000C94910500914E02043011F00C948C05F9
:100A800080E08093F801A4E6B2E00E947008AFE332
:100A9000B2E00C93A9E7B2E00E947008A0E4B2E0D3
:100AA0000C93AEE8B2E00E947008A1E4B2E00C93AF
:100AB000AFE2B1E0EAE0F3E10E94C707EFE3F2E062
:100AC000AFE2B1E00E94E2060E942B08AFE2B1E083
:100AD0000E94E206E2EDF2E10E94C707E0E4F2E0E4
:100AE000AFE2B1E00E94E2060E942B08AFE2B1E063
:100AF0000E94E206E8EDF2E10E94C707E1E4F2E0BD
:100B0000AFE2B1E00E94E2060E942B08AFE3B2E040
:100B10000E94A7070C948F0584E08093F8010C9441
:100B2000BE05EEE1F3E10E94CD0811F00C94A5059D
:100B300080E08093F801AFE2B1E0E6E2F3E10E94E9
:100B4000C7070E948A070C94BE05E2E3F3E10E9406
:100B5000CD0811F00C94BB0580E08093F801AFE262
:100B6000B1E0EAE3F3E10E94C7070E949F070E94F9
:100B70006E070C94BE0581E08093F8010C94C305C8
:100B800082E08093F8010091F801003018F011F034
:100B90000C94CC050C94D805EEEBFBE0A8EFB1E08B
:100BA0008C9199270E94E407AFE2B1E00E94C70749
:100BB000AFE2B1E00E94EB060E94F80608954F4BA9
:100BC00000436F6D616E646F206E6F207265636F9E
:100BD0006E6F6369646F004C6F6E67697475642033
:100BE000636F6D616E646F206E6F2076616C6964F7
:100BF00061004E756D65726F206465207573756157
:100C000072696F206E6F2076616C69646F004E753B
:100C10006D65726F20646520706172616D657472BC
:100C20006F7320696E76616C69646F004572726FD4
:100C300072206C6F6E676974756420706172616D8B
:100C40006574726F2031004572726F72206C6F6E26
:100C5000676974756420706172616D6574726F206C
:100C60003200506172616D6574726F206E6F207614
:100C7000616C69646F004552524F523800455252C0
:100C80004F522053442E20496E74656E7465206463
:100C900065206E7565766F0000000000030000009F
:100CA000330000003303000033330000333303000C
:100CB00033C00C00FF0FFF0F5555555533333333F9
:100CC000777777770C00FCFFCC00FCFFCC0CFCFFA7
:100CD000CCCCFCFF0C00FCFFF0FFFFFF0E94CA0120
:100CE00030E00E9470000E94F30180E080933F0298
:100CF00080E0A0E4B2E08C9380E0A1E4B2E08C93C9
:100D0000EFE3F2E080E090E00E9488070E946E0727
:100D1000A3E4B2E08C9184FB16F00C94A0067091D1
:100D200043027F7E70934302E8E4F3E10E94F10600
:100D3000A3EEB5E00E94EB060E94F8060E94A40212
:100D4000A3E4B2E08C9187FB16F00C94BE06709180
:100D500043027F7770934302EEE4F3E10E94F106D1
:100D60000E94F8060E949F07EFE3F2E0A2E4B2E0DF
:100D70008C9199270E9488070E946E070C94880620
:100D800005D00E94BD0700FC0CD008950024E89413
:100D900057FF02C009D0689400F80BD010F8012466
:100DA000089502D009D00895509540954F5F5F4F48
:100DB0000895E89417FF0895009510950F5F1F4F51
:100DC000689408958F938D918823E9F711978F91F7
:100DD0000895A8E8B8E08D91882311F00CD0FBCFDE
:100DE00008950E94CD07802D11F005D0FACF089507
:100DF0008DE001D08AE00090C00005FEFCCF80931A
:100E0000C60008953197F1F70895689462F808953F
:100E1000E89462F80895EF93FF93EE27E82BE92B0F
:100E200031F0E0EAFFE03197F1F70197D1F7FF9158
:100E3000EF910895E0910401F09105010CD0E80FC5
:100E4000F91F0895A0910401B091050104D0A80FE5
:100E5000B91F089599270C01880F991F800D911DC6
:100E60000895FFB6F894208308E0330FD0F400C053
:100E7000000020830000000000001083000000003C
:100E800000000000000000000000000000000A95C3
:100E9000D9F0330F68F30000000020830000000049
:100EA000000010830000000000002083000000000C
:100EB00000000000000000000000000000000A9593
:100EC00019F0330FA8F2EDCFFFBE0895FF27E09190
:100ED000000120910101322F30950895F7DFA09194
:100EE0000401B091050180910201909103011081EC
:100EF000122B212F23233D91B4DF20830197D9F7B3
:100F0000089501810D9300810D9302810D93089541
:100F100099DFF7CFDBDF0ED01081122B212F232397
:100F200030E09FDF0197E9F720830895A091040145
:100F3000B091050180910201909103010895F6DFBF
:100F400000270D930197E9F70895E89401C068948C
:100F50000D911D912C91EADF1D930D932D93039715
:100F6000D9F70EF4BBDF0895B991A99163DFC9CF1A
:100F7000019111912191308108950F92B801469FFE
:100F80008001479F100D569F100D0F9008950E94ED
:100F9000CD070D920020D9F70895C895319600200D
:100FA000089591E005C092E003C094E001C098E08C
:100FB000F4DF0D929A95E1F70895880F991F880F35
:100FC000991FE80FF91FF1CF0196019721F00E94B8
:100FD000CD07E9F7FACF0895819104D08D93882346
:100FE000D9F70895813618F08B3708F48F7D08956E
:100FF00091E0882321F08894991F8A95E9F7892F39
:1010000090950895883018F011968850FBCF089578
:10101000040F151F261F371F0895000F111F221FD1
:10102000331F089500951095209530950F5F1F4F41
:101030002F4F3F4F0895019110810FC00E94B807B4
:101040000EC00E94B80710C00191108117FF05C0A3
:101050003FEF2FEF04C0008111272227332737FFEE
:1010600003C0E0DF8DE28D93CF92DF92EF92AA244E
:10107000BB24CC24DD24EE2440E2EAE0FF2755E047
:1010800093E38081890F87FD9F7083FD907F891B8B
:1010900081935A95A9F7C1DFAA1CBB1CCC1CDD1C8F
:1010A000EE1C4A9551F7E894EFE0FF2782910BD0B0
:1010B000EB30E0F71EF068948A2D09D04D93EF9045
:1010C000DF90CF900895982F829501D0892F8F704F
:1010D000805D26F0803309F4089568948D93089517
:1010E00000271127222733271DD08A3328F4803385
:1010F00018F005D015D0F9CF0EF494CF0895805391
:101100008F93402F512F622F732F87DF86DF80DF71
:1011100084DF8F919927080F191F291F391F089500
:101120008D910895E894FCDF8032E9F38B32D9F396
:101130008930C9F38D3211F46894F2CF089588276D
:101140008D93089581918D938823E1F708950991F6
:101150009191992359F08A95D9F73197002331F06D
:1011600081918D930A958823C9F70895E8CFFF935D
:10117000881BF9E0001FFA9511F4FF910895881F6C
:10118000841B18F4840F8894F5CF0894F3CF8FEF65
:1011900083959D919923E1F70895689401C0E8949F
:1011A000AF93BF938D9116F0919103C00E94CD072C
:1011B000902D891718F011F48823A1F7BF91AF91F2
:1011C0000895689401C0E8942227102F231709F48A
:1011D000089526F40E94CD07802D01C081918030B2
:1011E00081F0891741F070E08D931A9591F723955E
:1011F00071E01D93EACF01D0E8CF703011F077276E
:101200000895772331F42395882713958D931A95A4
:10121000E9F708952A2A2A2A2A2A2A2A2A2A2A2A59
:101220002044524956455220415544494F202A2ACC
:101230002A2A2A2A2A2A2A2A2A2A000031302D304C
:10124000372D323032342031353A32303A303000B6
:10125000302E302E323100005453544C4544532E1E
:101260004241530024003A004C4545564657000081
:1012700056657273696F6E2046573A2046656368FB
:1012800061203C003E2C204172636869766F203CEF
:1012900000003E005345544C454400005365206314
:1012A0006F6E666967757261207365746C65642022
:1012B0006120000053455450495800005365206395
:1012C0006F6E666967207069782000002061205287
:1012D0003D002C20473D00002C20423D00004C45A5
:1012E000455049580000523D0000534554524E4766
:1012F0000000536520636F6E662052616E676F2039
:10130000000053455446494C000054697261206CFA
:101310006C656E61646120636F6E20523D00434CCA
:101320005246494C00004170616761206C656473EE
:101330000000434C52434F4C0000634C4541522047
:10134000634F4C4F52530000534552313D004E65A0
:06135000777069780000CF
:00000001FF
